:040000006F00E0535A
:100004000000000000000000C8020000CA02000056
:10001400000000003C05000000000000000000009B
:100024003C0500003C05000000000000000000004A
:100034003C050000000000003C050000000000003A
:100044003C0500003C0500003C0500003C050000A8
:100054003C0500003C0500003C0500003C05000098
:100064003C0500003C0500003C0500003C05000088
:100074003C0500003C0500003C0500003C05000078
:100084003C0500003C0500003C0500003C05000068
:100094003C0500003C0500003C0500003C05000058
:1000A4003C0500003C0500003C0500003C05000048
:1000B4003C0500003C0500003C0500003C05000038
:1000C4003C0500003C0500003C0500003C05000028
:1000D4003C0500003C0500003C0500003C05000018
:1000E4003C0500003C0500003C0500003C05000008
:1000F4003C0500003C0500003C0500003C050000F8
:10010400000000003C0500003C0500003C05000028
:100114003C0500003C0500003C0500003C050000D7
:100124003C0500003C0500003C0500003C050000C7
:100134003C0500003C0500003C0500003C050000B7
:100144003C0500003C0500003C0500003C050000A7
:100154003C0500003C0500003C0500003C05000097
:100164003C0500003C0500003C0500003C05000087
:100174003C0500003C0500003C0500003C05000077
:100184003C0500003C0500003C0500003C05000067
:100194003C0500003C0500003C0500003C05000057
:1001A400000000000000000000000000000000004B
:0C01B4000000000000000000000000003F
:1001C000397101436EC619A0397141536AC866CAB4
:1001D00062CC5ECE19A0397101535AD056D252D496
:1001E0004ED64AD826DA22DC06DE3301614082820E
:1001F00041114AC026C222C406C68282B24D4101C4
:10020000024D924C224CB24B4101024B924A224A7F
:10021000B2494101024992442244B24041018280E4
:100220003D432A876373C3029377F700BDEFADE5C3
:10023000937606FF3D8ABA960CC34CC30CC74CC7D5
:100240004107E36BD7FE11E28280B306C3408A0602
:100250009702000096966780A6002307B700A306C2
:10026000B7002306B700A305B7002305B700A30412
:10027000B7002304B700A303B7002303B700A3020A
:10028000B7002302B700A301B7002301B700A30002
:10029000B7002300B700828093F5F50F9396850091
:1002A000D58D93960501D58D61B79396270097025A
:1002B000000096968682E78086FA9680C1171D8F89
:1002C0003E96E374C3F8A5B701A001A0EFF25FF278
:1002D000094575252D2AEF00D027716513050520E6
:1002E000EF00302DB707002083A507083725000051
:1002F00013050502EF00104FC12CAA853725000019
:1003000013050503EF00104E372500001305050403
:10031000EF00905EEF009010EF00F0170546930598
:10032000000C37250040EF00300D9305800837257D
:100330000040EF00900D13054006EF0030249305B8
:10034000A00837250040EF00500C1385C182EF0054
:10035000101C13054006EF007022C5BFB7170240FE
:100360009843B706FFF01367170098C3D843758FFB
:10037000D8C39843B706F7FEFD16758F98C3984308
:10038000B706FCFFFD16758F98C3D843B70601FF6B
:10039000FD16758FD8C39843B70600ECFD16758F10
:1003A00098C33707FF0098C723A60702B746024045
:1003B00003A706801367070123A0E680D843B7068A
:1003C000C1FFFD16D8C3D843D8C3D843136707402D
:1003D000D8C3D843758FD8C3D843B7060001D8C354
:1003E0009843558F98C3984393166700E3DD06FE44
:1003F000D843B7160240719BD8C3D8431367270070
:10040000D8C32147DC42B18BE39EE7FE8280B7165A
:100410000240D842B70700201146318B9387070866
:100420006305C70021466308C70237177A00130720
:10043000072098C337170240584311839376F7007B
:1004400037070020130707003697142398433357C4
:10045000D70098C38280D842D442416649833D8BFD
:10046000F18E1306270015CF3D47630FE602414783
:10047000630FE602454781456313E6004146A1E26A
:100480003747024003270780418B0DC737177A0093
:10049000130707203306C70290C3C9DD98430583BD
:1004A00049BF81454946E1BF85453546C9BF8145BC
:1004B0003D46F1B737173D0013070790E1BF3715E9
:1004C000024058559316F700585563DF0604118310
:1004D0003D8B9306170037177A0013070720335711
:1004E000D70298C35455A182BD8A8DE29546330741
:1004F000D702058398C337170240585794433D8B62
:10050000050733D7E60298C3984369B70545639456
:10051000A600E546E9BF3D456396A600D146338770
:10052000E602C9BF8906E5BF3D8B93061700371762
:100530007A00130707203357D702F1B701A09701BC
:10054000002093812134178100201301A1AB1725CE
:100550000000130565BA970500209385A5AA1386A8
:10056000818163FAC5008322050023A0550011058F
:100570009105E3EAC5FE138581819385018E63773A
:10058000B500232005001105E36DB5FEFD42739013
:1005900002BCAD4273904280B76200009382820831
:1005A0007390023097020000938202A693E2320019
:1005B00073905230EFF09FDA97020000938242D19D
:1005C0007390123473002030B7F7FF1F03A54770F4
:1005D00082801C4141677917F98F1CC123200500D7
:1005E0002322050023240500B70702402326050027
:1005F000138787006317E500D8431367F700D8C354
:1006000082801387C7016316E500D8431367070F7D
:10061000FDB7138707036318E500D8438566938603
:1006200006F0558FE9BF138747046315E500D843EB
:10063000BD66C5BF138787056316E500D843B706B7
:100640000F00C5B71387C7066316E500D843B70682
:10065000F000C1BF138707086316E500D843B7064B
:10066000000FC1B7138787406319E50003A7474010
:100670001367F70023A2E74082801387C7416317FF
:10068000E50003A747401367070FEDB793870743BC
:10069000631BF500B707024003A7474085669386B2
:1006A00006F0558FC1BFB707024013874744631652
:1006B000E50003A74740BD66EDB71387874563177D
:1006C000E50003A74740B7060F00E1BF1387C74601
:1006D0006317E50003A74740B706F000D9B71387B3
:1006E00007486317E50003A74740B706000F55BF4B
:1006F000138707496319E50003A7474D1367F70000
:1007000023AAE74C82801387074A6317E50003A7F3
:10071000474D1367070FEDB71387074B6319E500C4
:1007200003A7474D8566938606F0558FD1BF138783
:10073000074CE319E5FC03A7474DBD66FDB71C4117
:1007400061773D0794517D8F9C45D58F9449D58F16
:10075000D449D58F944DD58FD44DD58FD451D58FC5
:100760009455D58FD98F1CC1DC455CC19C411CC5FB
:10077000DC415CC582801C4189C593E717001CC120
:10078000828041677917F98FDDBF9317350063DAEF
:100790000700B707024083A707407D8D3335A000CF
:1007A00082809317250063D70700B707024083A70D
:1007B000074DE5B7B70702409C43C5B7931735000F
:1007C00063D70700B707024023A2A7408280931790
:1007D000250063D70700B707024023AAA74C8280F1
:1007E000B7070240C8C382809C4513F7070113F87E
:1007F000F70001C7D8413368E8008E2113F7F50FE1
:1008000039C318418146854E3D4F930F80029302B4
:100810008004214E3396DE00B3F8C5006311160341
:100820009398260033131F011343F3FF3377E3003C
:10083000B318180133E7E800639FF70550C9850630
:10084000E39AC6FD18C11307F00F6375B70454414E
:100850002146854E3D4F930F800293028004414E06
:10086000B398CE0033F715016392E8021317260000
:1008700001173313EF001343F3FFB376D30033179D
:10088000E800D98E639DF701232A15010506E319B7
:10089000C6FD54C18280E39457FA10C94DB7E3975F
:1008A00057FE23281501DDB7B7070140635A050439
:1008B000DC4F93560501131805013707300013F676
:1008C000F60013580801B376E50063500506639BF4
:1008D000E602930606010D46B316D60093C6F6FF50
:1008E000F58F99C9135755011377F73F120733173F
:1008F000E800D98F63570504370701405CCF828039
:10090000DC4345BF1317B500635607008D46B39609
:10091000C600E9B7135755011377F73F120733178E
:10092000E8001347F7FFF98F6DBF6390E6023706C3
:1009300001405442370700F17D17F98F758F58C277
:10094000D5F1370701405CC382801317B500635CA3
:1009500007008D46B396C60093C6F6FFFD8EB70717
:10096000000FD58FF1BF1357550112073317E80059
:100970001347F7FF7D8FB707000FD98FD1B723AC8F
:10098000A1808280371702405C439146B18B63851A
:10099000D700A1466382D706B7177A00938707204E
:1009A0001CC1371602405C423707002013070701BD
:1009B0009183BD8BBA9794231C41B3D7D7005CC1F8
:1009C0005442A1829D8ABA969422B3D6D70014C508
:1009D0005442AD829D8A36971823B3D7E7005CC591
:1009E000584239839376370013874180369718230E
:1009F000B3D7E7021CC982805C435843C166C983F0
:100A0000758FB7F6FF1F83A6C670BD8B8907139637
:100A1000160163480600C54601466392D702C947DE
:100A200039A88946638FD702BD46638ED702C14677
:100A3000638ED702C54601466393D700C1471DEFB9
:100A40003747024003270780418B05C737177A00D5
:100A500013070720B307F7021CC121D61C41858369
:100A600081B701466DBF0546B547D1BF0146BD47B9
:100A7000F9B737173D0013070790E9BFB7150240D4
:100A8000D8559316F700D85563DF060411833D8BC4
:100A90009306170037177A00130707203357D7023A
:100AA00018C1D455A182BD8A8DE295463307D7027D
:100AB000058318C137170240585714413D8B05076D
:100AC00033D7E60218C1184171B785456394B60063
:100AD000E546E9BFBD456396B600D1463387E602D9
:100AE000C9BF8906E5BF3D8B9306170037177A000B
:100AF000130707203357D702F1B799C537170240BC
:100B00005C4B5D8D48CB8280B7170240D84B1345B4
:100B1000F5FF798DC8CB828099C5371702401C4FED
:100B20005D8D08CF8280B7170240984F1345F5FFBF
:100B3000798D88CF828099C5371702405C4F5D8DD3
:100B400048CF8280B7170240D84F1345F5FF798D03
:100B5000C8CF8280EFF2CFE91629F577FD17F58F20
:100B6000F621DA257971D58F1EA95625FD77938751
:100B7000379FF58FD6212A842EC6D58F9625D58FFF
:100B8000B625D58F5EA55E29C207C18393F7F7CF3F
:100B9000D98F5EA96808FD33B74701409387078066
:100BA000B245631EF402A2576547B387E702984136
:100BB000930640060A07B3D7E70233D7D702B3F745
:100BC000D7021207920793872703B3D7D702BD8BAB
:100BD000D98FC207C1831EA445616FF0AFE392575E
:100BE000E1B791C55E250967D98F5EA582805A2538
:100BF000F977FD17F98FD5BF5E2901C6DD8D4EA9A6
:100C0000828093C5F5FFFD8DDDBF93F5F51F4EA1E5
:100C100082800A216D8D3335A0008280EFF24FDD96
:100C2000011185451305001039378545130500046A
:100C3000E53585450545CD353705388085451305AE
:100C400005209D319167372401407C828D473EC449
:100C50004C00E147130504803EC67936E1777C827B
:100C60004C009147130504803EC6BD3EA56793879F
:100C700007603EC80C08B7070C00372500403ECC83
:100C800002CA231E0100F935854537250040913FF2
:100C900005616FF02FD8EFF2AFD579718545094521
:100CA00037040240993D1305044B2532B727004015
:100CB00091073EC29387C1813EC4C1473EC6930798
:100CC00000083ECC4C008D671305044B3ED402C88F
:100CD00002CA02CE02D002D202D69534938741884E
:100CE0003EC4930780053EC84C00930700021305DD
:100CF000044C3ED202C6A1341305044B8545A53CE5
:100D000085451305044C853C45616FF0AFD0EFF28B
:100D10008FCC37250020953C15C937250020B744D6
:100D20000040693C0144938404401389418893093D
:100D30008005930500042685E93D65DDB30789003C
:100D40008C2326850504D135E31534FF01456FF06A
:100D5000CFCBB707002083A7070837177A00130700
:100D60000720B3D7E70293F7F70F2380F182130729
:100D7000803EB387E702239FF1808280B7F700E0CF
:100D8000D8438146799BD8C303D7E1813306A702B4
:100D900090CBD4CB98431367070198C3984313674C
:100DA000170298C3D843058B75DF9843799B98C386
:100DB0008280EFF2EFC301112A84854537050200D6
:100DC0009D3B85451145893B91477C823715014004
:100DD0008D473EC44C00E147130505803EC62934CB
:100DE00022C837440040B70708000C081305044028
:100DF0003ECC02CA231E0100B13B854513050440C9
:100E0000CD3305616FF00FC1EFF2EFBCB744004086
:100E1000AE893289014493840440634524014A85A4
:100E20006FF0AFBE930500042685E53365DDB3871B
:100E300089008385070026850504C205C181F13339
:100E4000E9BF138781801C439386018E3E95636BB7
:100E5000D500B78600209386068063E5A60008C308
:100E60003E858280FD57EDBFDDC183A7C5FF4111DF
:100E700022C406C626C21384C5FF63D307003E946E
:100E8000AA84EF001023938741829C4381EF2322A1
:100E9000040023A281822244B2402685924441016B
:100EA0006F005021637EF40014403307D400639632
:100EB000E7009843DC43369718C05CC0D9BFBA87B7
:100EC000D84319C3E37DE4FE94433386D700631F00
:100ED00086001040B29694C33386D700E31DC7FA4C
:100EE00010435843B29694C3D8C375B76375C40012
:100EF000B1479CC04DB71040B306C4006316D7007D
:100F000014435843B29614C058C0C0C369B7828016
:100F1000011126CA93843500F19806CE22CC4AC826
:100F20004EC6A104B14763F3F404B14463E2B404D0
:100F30002A89EF0010189387418298433A8439E058
:100F4000938781829C4391E781454A855D2A23A44A
:100F5000A182A6854A857522FD5963193507B147D7
:100F60002320F9004A85EF00F01429A0E3D004FC07
:100F7000B1471CC10145F2406244D2444249B249E2
:100F8000056182801C40858F63CF0702AD4663F602
:100F9000F6001CC03E9404C031A05C40631387027D
:100FA00023A2F1824A85EF00F0101305B4009307E5
:100FB000440061993307F5405DDF3A94898F1CC086
:100FC0005DBF5CC3C5B72287404095BF13043500A1
:100FD0007198E30285FCB305A4404A851D22E31CF9
:100FE00035FBB5BF39713EDA2ED232D436D63AD877
:100FF00042DC46DE9387C18022CC804326CA06CEDF
:10100000AA8409C41C4C99E3228525250C4454105C
:101010002686228536C6EF009010F2406244D24404
:1010200021618280011126CA4AC806CE22CC4EC652
:1010300052C4AA842E8901C51C4D91E3DD2B9C4C22
:10104000804499E32685F5239717000093870703CB
:10105000631BF402C0405E24A18BB1C71C48A1C72A
:10106000FD59294A1C4483450900FD17B1E91CC4F8
:1010700063DD07062286A9452685B12AFD57630848
:10108000F502294535A097170000938727016314BF
:10109000F4008044C9B797170000938727FCE31C2E
:1010A000F4FAC0444DBFA2852685112C55D97D5533
:1010B000F2406244D2444249B249224A05618280E8
:1010C0001CC4050963D70700184C63CAE70063888E
:1010D00045011C401387170018C08CA361B72286F6
:1010E0002685D528E31035F9D9B71C40138717009A
:1010F00018C0294798A371B79387C180AA858843F0
:1011000015B7411122C42A842E8523AE018C06C650
:101110000D3BFD576317F5009387C18D9C4391C329
:101120001CC0B240224441018280411122C42E845D
:101130008395E50006C6EF009061634905007C4891
:10114000AA977CC8B2402244410182805E247D7708
:101150007D17F98F5EA4FDB7DE25011122CC26CACA
:101160004AC84EC606CE93F70710AA842E84328949
:10117000B68991C78395E500894601460D255E2411
:101180007D777D17F98F5EA48315E4006244F240F9
:10119000CE864A86B24942492685D2440561D5A801
:1011A000411122C42E848395E50006C6CD2BFD5740
:1011B0005A24631AF500FD77FD17F98F5EA4B2403B
:1011C0002244410182808567D98F5EA468C8C5BF6B
:1011D0008395E500DDA2011122CC26CA4AC806CEBD
:1011E0004EC6AA842E89328401C51C4D91E39121FB
:1011F00097170000938787E86317F406C0401C4CDC
:101200001CC45E24A18BC1C31C48B5CF1C48084038
:101210009379F90F1379F90F1D8D5C486346F5003A
:10122000A2852685CD2C25E51C440505FD171CC48B
:101230001C401387170018C0238037015C4863885F
:10124000A7005E24858B81CBA9476316F900A28590
:101250002685D1240DEDF24062444A85D2444249AC
:10126000B2490561828097170000938727E36314D2
:10127000F400804469B797170000938727DEE310D6
:10128000F4F8C044ADBFA2852685152841D17D590B
:10129000D9B7411122C42A842E85B285368623AE61
:1012A000018C06C69536FD576317F5009387C18DEF
:1012B0009C4391C31CC0B240224441018280411131
:1012C0009387C18026C2844322C44AC006C62A89A5
:1012D0002E8489C49C4C99E32685A12E9717000083
:1012E0009387C7D9631BF402C0400317C400931748
:1012F0000701C18393F68700ADEA93F6070195EEE7
:10130000A5472320F900136707045AA47D55B2406E
:10131000224492440249410182809717000093873A
:10132000E7D76314F4008044C9B797170000938788
:10133000E7D2E31CF4FAC0444DBF918B9DC34C58D7
:1013400089C9930744046384F5004A85313E232A02
:1013500004025E242322040093F7B7FD5EA41C4818
:101360001CC05E2493E787005EA41C4899EB5E24B2
:101370001307002093F707286385E700A2854A85B5
:101380004D215E2413F717001DC35C48232404007D
:10139000B307F0401CCC1C480145B5FB8317C400C3
:1013A00013F707082DD793E707045EA485B7898B49
:1013B000014791E3584818C4F9BF411122C42A8457
:1013C0002E8523AE018C06C6EF00D041FD57631772
:1013D000F5009387C18D9C4391C31CC0B240224449
:1013E00041018280DE25011122CC26CA06CE4AC8E0
:1013F0004EC613F78700AA842E8461EFD841634D4F
:10140000E000B841634AE0000145F2406244D24442
:101410004249B2490561828058547DD703A904002E
:101420009396370123A0040063DC060670485E240F
:10143000918B99C75C401D8E5C5899C33C401D8EB2
:101440005C540C50814626858297FD575A24631DB3
:10145000F5009440F54763E9D706B70740208507B4
:10146000B3D7D700858BADC31C48232204001CC012
:101470009317370163D80700FD576314F5009C40AC
:1014800091E368C84C5823A02401BDDD93074404B0
:101490006385F5002685EFF03F9D232A0402ADB752
:1014A0000C500146854626850297FD572A86E31093
:1014B000F5F89C40ADDF75476385E70059476393B6
:1014C000E70423A0240189B7136707045AA47D55B4
:1014D0002DBF83A90501E38909F203A905008D8BBE
:1014E00023A0350133093941014791E3D84918C494
:1014F000E35C20F11C540C50CA864E8626858297E8
:101500006347A0005E2493E707045EA4C9B7AA99C5
:101510003309A940F1BF9C49B9CF011122CC06CEB5
:101520002A8411C51C4D81E72EC62122B24597178A
:1015300000009387A7B4639BF5004C408397C500D8
:1015400095C722856244F240056169BD9717000086
:101550009387C7B46394F5000C44CDB79717000088
:101560009387C7AFE39CF5FC4C44C9BFF24062448B
:1015700001450561828001458280411122C406C671
:101580002A844EA572A523200500232205002324CA
:1015900005002322050623280500232A0500232C05
:1015A0000500214681451305C505EFE07FC7970774
:1015B00000009387C7B75CD097070000938707BAEE
:1015C0001CD4970700009387E7BD5CD49707000001
:1015D000938747C000D01CD8B2402244410182808A
:1015E00097050000938565F3B1A2411126C2130649
:1015F00080069384F5FFB384C4024AC02E8922C4B6
:1016000006C693854407EFF0BF902A8401CD2320BE
:10161000050023222501310508C41386840681456F
:10162000EFE01FC02285B2402244924402494101AA
:1016300082801C4DADE3411106C622C4970700000D
:10164000938747FA1CD5938701819C432324050483
:1016500023260504232805046314F50085471CCDC3
:101660002A841D2848C02285052808C422852D20EB
:1016700048C4484001469145093708440546A545F8
:10168000ED3D48440946C945CD3D85471CCCB24097
:10169000224441018280828041119387018126C2C8
:1016A00084434AC006C69C4C22C42A8999E32685F5
:1016B0004937938484048044DC40FD1763D60700D7
:1016C0009C40B9CF8440C5BF0317C40039E7C17738
:1016D0008507232204062320040023220400232458
:1016E00004005CC423280400232A0400232C0400E3
:1016F000214681451305C405EFE09FB2232A040269
:10170000232C040223240404232604042285B2404B
:10171000224492440249410182801304840671BF2D
:1017200091454A85D93588C051FDB1472320F9003C
:101730000144E9BF797122D44AD052CC56CA5AC862
:101740005EC606D626D24ECE2A8AAE8A13048504F9
:101750000149054BFD5B09ECB25022544A85925475
:101760000259F249624AD24A424BB24B45618280E9
:10177000044483294400FD1963D409000040E1BFFB
:10178000DE24637BFB008397E40063877701A685F3
:101790005285829A3369A90093848406E9BF411176
:1017A00022C42A842E85B285368623AE018C06C6D5
:1017B000EF009005FD576317F5009387C18D9C439B
:1017C00091C31CC0B2402244410182801971A6DA43
:1017D000AE848395E500A2DC86DE328463DB0500FF
:1017E000DE2423A0060093F707089DE3930700403B
:1017F00015A0300836C65127B246E34305FE7247AE
:10180000BD67F98F7977BA9793B717009CC2F9BF74
:10181000930700041CC0F6506654D6540145096174
:101820008280DE25011122CC06CE26CA4AC8898BC9
:101830002E8489CF930774041CC01CC885475CC8DC
:10184000F2406244D2444249056182807400300013
:10185000AA84AD3FA2452A892685EFF06FEB19E9EE
:101860008317C40013F7072061FFF19B93E727005C
:101870005EA4C9B7970700009387C7D69CD45E249F
:1018800008C008C893E707085EA4A2475CC8B2472F
:1018900099CB8315E4002685312711C55E24F19B81
:1018A00093E717005EA45E243369F9002316240130
:1018B00041BF828082801C46FD171CC663DA070088
:1018C000184E63C5E700A9476394F5006FF0BF9019
:1018D0001C422E851387170018C28CA38280011129
:1018E00022CC26CA4AC84EC652C406CE2A89AE8920
:1018F0003284B304D6007D5A63149400014501A8D4
:101900000C204E864A85453F0504E31745FFF2400B
:101910006244D2444249B249224A0561828035710B
:1019200022CD26CB4AC94EC706CF52C556C35AC18F
:10193000DEDEE2DCE6DAAA89AE843289368401C5CD
:101940001C4D91E3FD319707000093872773639740
:10195000F40C83A44900DE24A18BFDC39C48EDC395
:1019600093070002A304F1029307000302D22305A8
:10197000F10222C6930B5002970A0000938A0A7460
:10198000054C294B4A841C2099C3639E770DB30CE8
:101990002441638D0C00E6864A86A6854E858137F4
:1019A000FD57630FF51C9256E69636D21C206389CC
:1019B000071CFD571309140002C802CE3ECA02CC10
:1019C000A309010482D48345090015465685FD2BE1
:1019D00013041900C24751E913F7070109C7130798
:1019E0000002A309E10413F7870009C71307B00237
:1019F000A309E104834609001307A002638FE606EA
:101A0000F2474A848146254618209305140013079F
:101A100007FD6377E60AB5CA3ECE85A897070000A2
:101A20009387C7676395F40083A489002DB7970750
:101A300000009387A762E390F4F283A4C90021BF5A
:101A4000A6854E85EFF0BF8701DD7D55FA406A44DB
:101A5000DA444A49BA492A4A9A4A0A4BF65B665C12
:101A6000D65C0D618280050439BF330555413315BD
:101A7000AC00C98F3EC82289B9B7324793064700E8
:101A8000184336C6634707023ACE18209307E00290
:101A9000631DF70418309307A002631BF702B247D7
:101AA0000904138747009C433AC663C107023ECA34
:101AB0002DA83307E04093E727003ACE3EC8F1B7A0
:101AC000B387670385462E84BA973DBFFD57C5B7D8
:101AD000050402CA81468147254618209305140053
:101AE000130707FD6374E606F9F20C200D4617058F
:101AF00000001305255DD92911CD970700009387B4
:101B0000675C1D8D93070004B397A7004245050449
:101B10005D8D2AC80C201946170500001305C55A0B
:101B2000130914002304B102552135C197E7FFFFC3
:101B30009387474D95E74247B2471377071009CF80
:101B400091073EC69257D2973ED22DBDB387670309
:101B500085462E84BA9751B79D07E19BA107D5B75B
:101B60007800970600009386C6D726860C084E8517
:101B700097000000E7000000FD572A8AE314F5FCF7
:101B8000DE2493F70704E39207EC1255C1B5780001
:101B9000970600009386E6D426860C084E85012A17
:101BA000E1BF797156CA9C49BA8A984522D426D297
:101BB0004ECE52CC06D64AD05AC85EC6AA892E84CA
:101BC000B284368A63D3E700BA879CC003473404E3
:101BD00019C385079CC01C4093F7070281C79C402E
:101BE00089079CC00329040013796900631A09005E
:101BF000130B9401FD5B5C449840998F634CF9048E
:101C00001C408346340493F70702B336D000A5EB9B
:101C100013063404D2854E85829AFD576303F5047A
:101C20001C4011469840998B544481446397C700E7
:101C3000B384E64063D3040081441C4418486354D1
:101C4000F700998FBE94014969047D5B6398240570
:101C5000014509A885465A86D2854E85829A631E1B
:101C600075017D55B250225492540259F249624A8C
:101C7000D24A424BB24B456182800509ADBF330762
:101C8000D40013060003A301C70403475404938739
:101C90001600A2978906A381E7049DBF8546228688
:101CA000D2854E85829AE30E65FB050945B77971A9
:101CB00022D426D24AD04ECE06D652CC56CA5AC8C4
:101CC000B689942D930790063289AA842E841386B0
:101CD0003504638DF60263E2D706930780056385BA
:101CE000F61863EDD700638D062093073004638EEA
:101CF000F60A930A24042301D404C9A093073006EA
:101D00006385F60A93074006E395F6FE1C400843F8
:101D100093F6070893054500C5C61C410CC363D85C
:101D200007001307D002B307F040A301E4049706AD
:101D300000009386E639294765A893070007638169
:101D4000F61663E5D7029307E0066388F618930753
:101D5000F006E390F6FA0C401C4313F805081385CF
:101D600047006307080608C39C4385A893075007EC
:101D7000E383F6FE930780076388F6129307300724
:101D8000E399F6F61C43D04181459386470014C37E
:101D900083AA070056851D2C01C53305554148C04F
:101DA0005C401CC8A301040461A81C43930A2404DA
:101DB000938647009C4314C32301F4048547D5B799
:101DC00093F607041C410CC3B9DAC207C18781BF6F
:101DD00093F5050408C3C9D99E231307F00663864B
:101DE000E60E970600009386A62E2947A301040459
:101DF0004C400CC463C5050008406D9908C099E3C8
:101E0000B28A89CDB28AB3F5E702FD1AB6958C2164
:101E10002380BA00B3D5E70263FFE70AA147631E38
:101E2000F7001C40858B91CB58401C4863C7E700E6
:101E300093070003A38FFAFEFD1A3306564110C81C
:101E40004E87CA867000A2852685A13B7D5A631DF8
:101E5000450B7D55B250225492540259F249624AC0
:101E6000D24A424B45618280A382D5049706000086
:101E7000938606260C40084313F805081C411105FB
:101E8000630D080208C313F7150001C793E50502A7
:101E90000CC04147A1FF0C4093F5F5FD0CC0B9B74C
:101EA0009C4193E707029CC193078007A302F404B7
:101EB000970600009386062375BF13F8050408C330
:101EC000E30308FCC207C1837DBF97060000938629
:101ED0002620214721BFAE873DB794411C43CC4902
:101EE00013F80608138547006306080008C39C43DF
:101EF0008CC339A008C393F606049C43F5DA8EA37D
:101F000023280400B28A2DBF14485686CA85268528
:101F10008299E30045F51C40898B8DE7B247484420
:101F2000E35AF5F23E853DB785465686CA85268535
:101F30008299E30065F3050A5C443247998FE345D3
:101F4000FAFEE9BF014A930A94017D5BF5B741119E
:101F500022C42A842E85B285368623AE018C06C61D
:101F60005528FD576317F5009387C18D9C4391C396
:101F70001CC0B240224441018280411122C42A8403
:101F80002E85B28523AE018C06C69D20FD576317B2
:101F9000F5009387C18D9C4391C31CC0B24022447D
:101FA00041018280411122C42A842E8523AE018CF6
:101FB00006C6A920FD576317F5009387C18D9C4382
:101FC00091C31CC0B24022444101828093F5F50FB9
:101FD0002A966314C500014582801C21E38EB7FE5A
:101FE0000505C5BF9307800523AEF18C7D55828022
:101FF0009307800523AEF18C7D5582809307800581
:1020000023AEF18C014582809307800523AEF18CCD
:102010007D5582809307800523AEF18C7D558280AB
:1020200053797374656D436C6B3A25640D0A000037
:102030004368697049443A253038780D0A00000039
:1020400054686973206973207072696E74662065C4
:1020500078616D706C650D000000000000000000EC
:102060000000000000000000000000000000000070
:102070000000000000000000000000000000000060
:102080000000000000000000000000000000000050
:102090000000000000000000000000000000000040
:1020A0000000000000000000000000000000000030
:1020B0000000000000000000232D302B2000000055
:1020C000686C4C0065666745464700003031323326
:1020D0003435363738394142434445460000000024
:1020E000303132333435363738396162636465668E
:0420F00000000000EC
:1020F40000000000000000000102030406070809B4
:102104000000000001020304010203040607080999
:1021140000000000782000009820000058200000F3
:1021240000000000000000000000000000000000AB
:10213400000000000000000000000000000000009B
:10214400000000000000000000000000000000008B
:10215400000000000000000000000000000000007B
:10216400000000000000000000000000000000006B
:1021740000449508020406086001002020000020A5
:08218400200000200000000013
:00000001FF
